{"abi":[{"type":"constructor","inputs":[{"name":"_sentinelAccount","type":"address","internalType":"address"}],"stateMutability":"nonpayable"},{"type":"function","name":"actionCount","inputs":[],"outputs":[{"name":"","type":"uint256","internalType":"uint256"}],"stateMutability":"view"},{"type":"function","name":"logAction","inputs":[{"name":"tokenIn","type":"address","internalType":"address"},{"name":"tokenOut","type":"address","internalType":"address"},{"name":"amountIn","type":"uint256","internalType":"uint256"},{"name":"amountOut","type":"uint256","internalType":"uint256"},{"name":"reasoningCID","type":"string","internalType":"string"}],"outputs":[{"name":"actionId","type":"uint256","internalType":"uint256"}],"stateMutability":"nonpayable"},{"type":"function","name":"owner","inputs":[],"outputs":[{"name":"","type":"address","internalType":"address"}],"stateMutability":"view"},{"type":"function","name":"renounceOwnership","inputs":[],"outputs":[],"stateMutability":"nonpayable"},{"type":"function","name":"sentinelAccount","inputs":[],"outputs":[{"name":"","type":"address","internalType":"address"}],"stateMutability":"view"},{"type":"function","name":"setSentinelAccount","inputs":[{"name":"_account","type":"address","internalType":"address"}],"outputs":[],"stateMutability":"nonpayable"},{"type":"function","name":"transferOwnership","inputs":[{"name":"newOwner","type":"address","internalType":"address"}],"outputs":[],"stateMutability":"nonpayable"},{"type":"event","name":"ActionExecuted","inputs":[{"name":"actionId","type":"uint256","indexed":true,"internalType":"uint256"},{"name":"tokenIn","type":"address","indexed":true,"internalType":"address"},{"name":"tokenOut","type":"address","indexed":true,"internalType":"address"},{"name":"amountIn","type":"uint256","indexed":false,"internalType":"uint256"},{"name":"amountOut","type":"uint256","indexed":false,"internalType":"uint256"},{"name":"reasoningCID","type":"string","indexed":false,"internalType":"string"},{"name":"timestamp","type":"uint256","indexed":false,"internalType":"uint256"}],"anonymous":false},{"type":"event","name":"OwnershipTransferred","inputs":[{"name":"previousOwner","type":"address","indexed":true,"internalType":"address"},{"name":"newOwner","type":"address","indexed":true,"internalType":"address"}],"anonymous":false},{"type":"error","name":"ActionLog__OnlySentinelAccount","inputs":[]},{"type":"error","name":"OwnableInvalidOwner","inputs":[{"name":"owner","type":"address","internalType":"address"}]},{"type":"error","name":"OwnableUnauthorizedAccount","inputs":[{"name":"account","type":"address","internalType":"address"}]}],"bytecode":{"object":"0x608060405234801561000f575f80fd5b5060405161053238038061053283398101604081905261002e916100d1565b338061005357604051631e4fbdf760e01b81525f600482015260240160405180910390fd5b61005c81610082565b50600180546001600160a01b0319166001600160a01b03929092169190911790556100fe565b5f80546001600160a01b038381166001600160a01b0319831681178455604051919092169283917f8be0079c531659141344cd1fd0a4f28419497f9722a3daafe3b4186f6b6457e09190a35050565b5f602082840312156100e1575f80fd5b81516001600160a01b03811681146100f7575f80fd5b9392505050565b6104278061010b5f395ff3fe608060405234801561000f575f80fd5b506004361061007a575f3560e01c80638da5cb5b116100585780638da5cb5b146100b7578063ba80a083146100db578063f2fde38b146100ee578063f44b21bf14610101575f80fd5b806329da57381461007e5780635af7b5d11461009a578063715018a6146100af575b5f80fd5b61008760025481565b6040519081526020015b60405180910390f35b6100ad6100a83660046102ca565b610114565b005b6100ad61013e565b5f546001600160a01b03165b6040516001600160a01b039091168152602001610091565b6001546100c3906001600160a01b031681565b6100ad6100fc3660046102ca565b610151565b61008761010f3660046102ea565b610193565b61011c610234565b600180546001600160a01b0319166001600160a01b0392909216919091179055565b610146610234565b61014f5f610260565b565b610159610234565b6001600160a01b03811661018757604051631e4fbdf760e01b81525f60048201526024015b60405180910390fd5b61019081610260565b50565b6001545f906001600160a01b031633146101c057604051634f40cd1f60e01b815260040160405180910390fd5b60025f81546101ce90610388565b9190508190559050856001600160a01b0316876001600160a01b0316827fc41686221bd3c67c7ede4b33d832da49221c8d2dcbbc40dd0c5e3ed585f706e688888888426040516102229594939291906103ac565b60405180910390a49695505050505050565b5f546001600160a01b0316331461014f5760405163118cdaa760e01b815233600482015260240161017e565b5f80546001600160a01b038381166001600160a01b0319831681178455604051919092169283917f8be0079c531659141344cd1fd0a4f28419497f9722a3daafe3b4186f6b6457e09190a35050565b80356001600160a01b03811681146102c5575f80fd5b919050565b5f602082840312156102da575f80fd5b6102e3826102af565b9392505050565b5f805f805f8060a087890312156102ff575f80fd5b610308876102af565b9550610316602088016102af565b94506040870135935060608701359250608087013567ffffffffffffffff80821115610340575f80fd5b818901915089601f830112610353575f80fd5b813581811115610361575f80fd5b8a6020828501011115610372575f80fd5b6020830194508093505050509295509295509295565b5f600182016103a557634e487b7160e01b5f52601160045260245ffd5b5060010190565b85815284602082015260806040820152826080820152828460a08301375f60a084830101525f60a0601f19601f8601168301019050826060830152969550505050505056fea264697066735822122083768a381e4c68f55ec5f52c0cfd6e13565343956da8095a4d2e172d3cd715b964736f6c63430008180033","linkReferences":{}},"methodIdentifiers":{"actionCount()":"29da5738","logAction(address,address,uint256,uint256,string)":"f44b21bf","owner()":"8da5cb5b","renounceOwnership()":"715018a6","sentinelAccount()":"ba80a083","setSentinelAccount(address)":"5af7b5d1","transferOwnership(address)":"f2fde38b"},"id":37}