{"abi":[{"type":"constructor","inputs":[{"name":"_entryPoint","type":"address","internalType":"contract IEntryPoint"}],"stateMutability":"nonpayable"},{"type":"receive","stateMutability":"payable"},{"type":"function","name":"addStake","inputs":[{"name":"unstakeDelaySec","type":"uint32","internalType":"uint32"}],"outputs":[],"stateMutability":"payable"},{"type":"function","name":"deposit","inputs":[],"outputs":[],"stateMutability":"payable"},{"type":"function","name":"depositToEntryPoint","inputs":[],"outputs":[],"stateMutability":"payable"},{"type":"function","name":"entryPoint","inputs":[],"outputs":[{"name":"","type":"address","internalType":"contract IEntryPoint"}],"stateMutability":"view"},{"type":"function","name":"getDeposit","inputs":[],"outputs":[{"name":"","type":"uint256","internalType":"uint256"}],"stateMutability":"view"},{"type":"function","name":"owner","inputs":[],"outputs":[{"name":"","type":"address","internalType":"address"}],"stateMutability":"view"},{"type":"function","name":"postOp","inputs":[{"name":"mode","type":"uint8","internalType":"enum IPaymaster.PostOpMode"},{"name":"context","type":"bytes","internalType":"bytes"},{"name":"actualGasCost","type":"uint256","internalType":"uint256"},{"name":"actualUserOpFeePerGas","type":"uint256","internalType":"uint256"}],"outputs":[],"stateMutability":"nonpayable"},{"type":"function","name":"registeredAccounts","inputs":[{"name":"","type":"address","internalType":"address"}],"outputs":[{"name":"","type":"bool","internalType":"bool"}],"stateMutability":"view"},{"type":"function","name":"renounceOwnership","inputs":[],"outputs":[],"stateMutability":"nonpayable"},{"type":"function","name":"setAccountRegistered","inputs":[{"name":"account","type":"address","internalType":"address"},{"name":"registered","type":"bool","internalType":"bool"}],"outputs":[],"stateMutability":"nonpayable"},{"type":"function","name":"transferOwnership","inputs":[{"name":"newOwner","type":"address","internalType":"address"}],"outputs":[],"stateMutability":"nonpayable"},{"type":"function","name":"unlockStake","inputs":[],"outputs":[],"stateMutability":"nonpayable"},{"type":"function","name":"validatePaymasterUserOp","inputs":[{"name":"userOp","type":"tuple","internalType":"struct PackedUserOperation","components":[{"name":"sender","type":"address","internalType":"address"},{"name":"nonce","type":"uint256","internalType":"uint256"},{"name":"initCode","type":"bytes","internalType":"bytes"},{"name":"callData","type":"bytes","internalType":"bytes"},{"name":"accountGasLimits","type":"bytes32","internalType":"bytes32"},{"name":"preVerificationGas","type":"uint256","internalType":"uint256"},{"name":"gasFees","type":"bytes32","internalType":"bytes32"},{"name":"paymasterAndData","type":"bytes","internalType":"bytes"},{"name":"signature","type":"bytes","internalType":"bytes"}]},{"name":"userOpHash","type":"bytes32","internalType":"bytes32"},{"name":"maxCost","type":"uint256","internalType":"uint256"}],"outputs":[{"name":"context","type":"bytes","internalType":"bytes"},{"name":"validationData","type":"uint256","internalType":"uint256"}],"stateMutability":"nonpayable"},{"type":"function","name":"withdrawFromEntryPoint","inputs":[{"name":"to","type":"address","internalType":"address payable"},{"name":"amount","type":"uint256","internalType":"uint256"}],"outputs":[],"stateMutability":"nonpayable"},{"type":"function","name":"withdrawStake","inputs":[{"name":"withdrawAddress","type":"address","internalType":"address payable"}],"outputs":[],"stateMutability":"nonpayable"},{"type":"function","name":"withdrawTo","inputs":[{"name":"withdrawAddress","type":"address","internalType":"address payable"},{"name":"amount","type":"uint256","internalType":"uint256"}],"outputs":[],"stateMutability":"nonpayable"},{"type":"event","name":"AccountRegistered","inputs":[{"name":"account","type":"address","indexed":true,"internalType":"address"},{"name":"registered","type":"bool","indexed":false,"internalType":"bool"}],"anonymous":false},{"type":"event","name":"OwnershipTransferred","inputs":[{"name":"previousOwner","type":"address","indexed":true,"internalType":"address"},{"name":"newOwner","type":"address","indexed":true,"internalType":"address"}],"anonymous":false},{"type":"error","name":"OwnableInvalidOwner","inputs":[{"name":"owner","type":"address","internalType":"address"}]},{"type":"error","name":"OwnableUnauthorizedAccount","inputs":[{"name":"account","type":"address","internalType":"address"}]},{"type":"error","name":"SentinelPaymaster__SenderNotRegistered","inputs":[{"name":"sender","type":"address","internalType":"address"}]}],"bytecode":{"object":"0x60a060405234801561000f575f80fd5b50604051610c5a380380610c5a83398101604081905261002e91610185565b80338061005557604051631e4fbdf760e01b81525f60048201526024015b60405180910390fd5b61005e8161007a565b50610068816100c9565b6001600160a01b0316608052506101d1565b5f80546001600160a01b038381166001600160a01b0319831681178455604051919092169283917f8be0079c531659141344cd1fd0a4f28419497f9722a3daafe3b4186f6b6457e09190a35050565b6040516301ffc9a760e01b815263122a0e9b60e31b60048201526001600160a01b038216906301ffc9a790602401602060405180830381865afa158015610112573d5f803e3d5ffd5b505050506040513d601f19601f8201168201806040525081019061013691906101b2565b6101825760405162461bcd60e51b815260206004820152601e60248201527f49456e747279506f696e7420696e74657266616365206d69736d617463680000604482015260640161004c565b50565b5f60208284031215610195575f80fd5b81516001600160a01b03811681146101ab575f80fd5b9392505050565b5f602082840312156101c2575f80fd5b815180151581146101ab575f80fd5b608051610a4061021a5f395f81816101e3015281816102f8015281816103720152818161040401528181610491015281816105260152818161057e01526106d30152610a405ff3fe6080604052600436106100f2575f3560e01c8063bb9fe6bf11610087578063d0e30db011610057578063d0e30db014610112578063d8fa638d1461025a578063dd5f561e14610298578063f2fde38b146102b7575f80fd5b8063bb9fe6bf14610205578063c23a5cea14610219578063c399ec8814610238578063c7d763081461011a575f80fd5b8063715018a6116100c2578063715018a61461016f5780637c627b21146101835780638da5cb5b146101a2578063b0d691fe146101d2575f80fd5b80630396cb60146100fd5780631b3ba10114610112578063205c28781461011a57806352b7512c14610139575f80fd5b366100f957005b5f80fd5b61011061010b366004610805565b6102d6565b005b61011061035d565b348015610125575f80fd5b50610110610134366004610843565b6103d6565b348015610144575f80fd5b5061015861015336600461086d565b610445565b6040516101669291906108bc565b60405180910390f35b34801561017a575f80fd5b50610110610467565b34801561018e575f80fd5b5061011061019d36600461090e565b61047a565b3480156101ad575f80fd5b505f546001600160a01b03165b6040516001600160a01b039091168152602001610166565b3480156101dd575f80fd5b506101ba7f000000000000000000000000000000000000000000000000000000000000000081565b348015610210575f80fd5b50610110610487565b348015610224575f80fd5b5061011061023336600461099d565b6104ff565b348015610243575f80fd5b5061024c610567565b604051908152602001610166565b348015610265575f80fd5b5061028861027436600461099d565b60016020525f908152604090205460ff1681565b6040519015158152602001610166565b3480156102a3575f80fd5b506101106102b23660046109b8565b6105f4565b3480156102c2575f80fd5b506101106102d136600461099d565b61065a565b6102de61069c565b604051621cb65b60e51b815263ffffffff821660048201527f00000000000000000000000000000000000000000000000000000000000000006001600160a01b031690630396cb609034906024015f604051808303818588803b158015610343575f80fd5b505af1158015610355573d5f803e3d5ffd5b505050505050565b60405163b760faf960e01b81523060048201527f00000000000000000000000000000000000000000000000000000000000000006001600160a01b03169063b760faf99034906024015f604051808303818588803b1580156103bd575f80fd5b505af11580156103cf573d5f803e3d5ffd5b5050505050565b6103de61069c565b60405163040b850f60e31b81526001600160a01b038381166004830152602482018390527f0000000000000000000000000000000000000000000000000000000000000000169063205c2878906044015f604051808303815f87803b158015610343575f80fd5b60605f6104506106c8565b61045b858585610738565b91509150935093915050565b61046f61069c565b6104785f6107b6565b565b6104826106c8565b6103cf565b61048f61069c565b7f00000000000000000000000000000000000000000000000000000000000000006001600160a01b031663bb9fe6bf6040518163ffffffff1660e01b81526004015f604051808303815f87803b1580156104e7575f80fd5b505af11580156104f9573d5f803e3d5ffd5b50505050565b61050761069c565b60405163611d2e7560e11b81526001600160a01b0382811660048301527f0000000000000000000000000000000000000000000000000000000000000000169063c23a5cea906024015f604051808303815f87803b1580156103bd575f80fd5b6040516370a0823160e01b81523060048201525f907f00000000000000000000000000000000000000000000000000000000000000006001600160a01b0316906370a0823190602401602060405180830381865afa1580156105cb573d5f803e3d5ffd5b505050506040513d601f19601f820116820180604052508101906105ef91906109f3565b905090565b6105fc61069c565b6001600160a01b0382165f81815260016020908152604091829020805460ff191685151590811790915591519182527f0d4ac41cb1ba4f6d5afb4ae5befb93f5abf56de7829707d51d0f920807506563910160405180910390a25050565b61066261069c565b6001600160a01b03811661069057604051631e4fbdf760e01b81525f60048201526024015b60405180910390fd5b610699816107b6565b50565b5f546001600160a01b031633146104785760405163118cdaa760e01b8152336004820152602401610687565b336001600160a01b037f000000000000000000000000000000000000000000000000000000000000000016146104785760405162461bcd60e51b815260206004820152601560248201527414d95b99195c881b9bdd08115b9d1c9e541bda5b9d605a1b6044820152606401610687565b60605f60018161074b602088018861099d565b6001600160a01b0316815260208101919091526040015f205460ff1661079d57610778602086018661099d565b60405163018a478960e71b81526001600160a01b039091166004820152602401610687565b505060408051602081019091525f808252935093915050565b5f80546001600160a01b038381166001600160a01b0319831681178455604051919092169283917f8be0079c531659141344cd1fd0a4f28419497f9722a3daafe3b4186f6b6457e09190a35050565b5f60208284031215610815575f80fd5b813563ffffffff81168114610828575f80fd5b9392505050565b6001600160a01b0381168114610699575f80fd5b5f8060408385031215610854575f80fd5b823561085f8161082f565b946020939093013593505050565b5f805f6060848603121561087f575f80fd5b833567ffffffffffffffff811115610895575f80fd5b840161012081870312156108a7575f80fd5b95602085013595506040909401359392505050565b604081525f83518060408401525f5b818110156108e857602081870181015160608684010152016108cb565b505f606082850101526060601f19601f8301168401019150508260208301529392505050565b5f805f805f60808688031215610922575f80fd5b853560038110610930575f80fd5b9450602086013567ffffffffffffffff8082111561094c575f80fd5b818801915088601f83011261095f575f80fd5b81358181111561096d575f80fd5b89602082850101111561097e575f80fd5b9699602092909201985095966040810135965060600135945092505050565b5f602082840312156109ad575f80fd5b81356108288161082f565b5f80604083850312156109c9575f80fd5b82356109d48161082f565b9150602083013580151581146109e8575f80fd5b809150509250929050565b5f60208284031215610a03575f80fd5b505191905056fea26469706673582212204a2978582ea2ee00f7e3e5d2b77911106011f67f5c0f82396f5640ab6b68865064736f6c63430008180033","linkReferences":{}},"methodIdentifiers":{"addStake(uint32)":"0396cb60","deposit()":"d0e30db0","depositToEntryPoint()":"1b3ba101","entryPoint()":"b0d691fe","getDeposit()":"c399ec88","owner()":"8da5cb5b","postOp(uint8,bytes,uint256,uint256)":"7c627b21","registeredAccounts(address)":"d8fa638d","renounceOwnership()":"715018a6","setAccountRegistered(address,bool)":"dd5f561e","transferOwnership(address)":"f2fde38b","unlockStake()":"bb9fe6bf","validatePaymasterUserOp((address,uint256,bytes,bytes,bytes32,uint256,bytes32,bytes,bytes),bytes32,uint256)":"52b7512c","withdrawFromEntryPoint(address,uint256)":"c7d76308","withdrawStake(address)":"c23a5cea","withdrawTo(address,uint256)":"205c2878"},"id":40}