{"abi":[{"type":"constructor","inputs":[{"name":"_sentinelAccount","type":"address","internalType":"address"},{"name":"_maxTradeSizeUsd","type":"uint256","internalType":"uint256"},{"name":"_dailyDrawdownLimit","type":"uint256","internalType":"uint256"},{"name":"_cooldownPeriod","type":"uint256","internalType":"uint256"}],"stateMutability":"nonpayable"},{"type":"function","name":"checkPolicy","inputs":[{"name":"tokenIn","type":"address","internalType":"address"},{"name":"tokenOut","type":"address","internalType":"address"},{"name":"amountIn","type":"uint256","internalType":"uint256"}],"outputs":[],"stateMutability":"nonpayable"},{"type":"function","name":"cooldownPeriod","inputs":[],"outputs":[{"name":"","type":"uint256","internalType":"uint256"}],"stateMutability":"view"},{"type":"function","name":"cumulativeDrawdown","inputs":[],"outputs":[{"name":"","type":"uint256","internalType":"uint256"}],"stateMutability":"view"},{"type":"function","name":"dailyDrawdownLimit","inputs":[],"outputs":[{"name":"","type":"uint256","internalType":"uint256"}],"stateMutability":"view"},{"type":"function","name":"drawdownWindowStart","inputs":[],"outputs":[{"name":"","type":"uint256","internalType":"uint256"}],"stateMutability":"view"},{"type":"function","name":"lastTradeTime","inputs":[{"name":"","type":"address","internalType":"address"}],"outputs":[{"name":"","type":"uint256","internalType":"uint256"}],"stateMutability":"view"},{"type":"function","name":"maxTradeSizeUsd","inputs":[],"outputs":[{"name":"","type":"uint256","internalType":"uint256"}],"stateMutability":"view"},{"type":"function","name":"owner","inputs":[],"outputs":[{"name":"","type":"address","internalType":"address"}],"stateMutability":"view"},{"type":"function","name":"priceFeeds","inputs":[{"name":"","type":"address","internalType":"address"}],"outputs":[{"name":"","type":"address","internalType":"address"}],"stateMutability":"view"},{"type":"function","name":"recordLoss","inputs":[{"name":"lossUsd","type":"uint256","internalType":"uint256"}],"outputs":[],"stateMutability":"nonpayable"},{"type":"function","name":"renounceOwnership","inputs":[],"outputs":[],"stateMutability":"nonpayable"},{"type":"function","name":"sentinelAccount","inputs":[],"outputs":[{"name":"","type":"address","internalType":"address"}],"stateMutability":"view"},{"type":"function","name":"setPriceFeed","inputs":[{"name":"token","type":"address","internalType":"address"},{"name":"feed","type":"address","internalType":"address"}],"outputs":[],"stateMutability":"nonpayable"},{"type":"function","name":"setSentinelAccount","inputs":[{"name":"_account","type":"address","internalType":"address"}],"outputs":[],"stateMutability":"nonpayable"},{"type":"function","name":"setTokenWhitelist","inputs":[{"name":"token","type":"address","internalType":"address"},{"name":"allowed","type":"bool","internalType":"bool"}],"outputs":[],"stateMutability":"nonpayable"},{"type":"function","name":"tokenWhitelist","inputs":[{"name":"","type":"address","internalType":"address"}],"outputs":[{"name":"","type":"bool","internalType":"bool"}],"stateMutability":"view"},{"type":"function","name":"transferOwnership","inputs":[{"name":"newOwner","type":"address","internalType":"address"}],"outputs":[],"stateMutability":"nonpayable"},{"type":"function","name":"updatePolicy","inputs":[{"name":"_maxTradeSizeUsd","type":"uint256","internalType":"uint256"},{"name":"_dailyDrawdownLimit","type":"uint256","internalType":"uint256"},{"name":"_cooldownPeriod","type":"uint256","internalType":"uint256"}],"outputs":[],"stateMutability":"nonpayable"},{"type":"event","name":"DrawdownRecorded","inputs":[{"name":"lossUsd","type":"uint256","indexed":false,"internalType":"uint256"},{"name":"cumulativeDrawdown","type":"uint256","indexed":false,"internalType":"uint256"}],"anonymous":false},{"type":"event","name":"OwnershipTransferred","inputs":[{"name":"previousOwner","type":"address","indexed":true,"internalType":"address"},{"name":"newOwner","type":"address","indexed":true,"internalType":"address"}],"anonymous":false},{"type":"event","name":"PolicyUpdated","inputs":[{"name":"maxTradeSizeUsd","type":"uint256","indexed":false,"internalType":"uint256"},{"name":"dailyDrawdownLimit","type":"uint256","indexed":false,"internalType":"uint256"},{"name":"cooldownPeriod","type":"uint256","indexed":false,"internalType":"uint256"}],"anonymous":false},{"type":"event","name":"PriceFeedSet","inputs":[{"name":"token","type":"address","indexed":true,"internalType":"address"},{"name":"feed","type":"address","indexed":true,"internalType":"address"}],"anonymous":false},{"type":"event","name":"TokenWhitelisted","inputs":[{"name":"token","type":"address","indexed":true,"internalType":"address"},{"name":"allowed","type":"bool","indexed":false,"internalType":"bool"}],"anonymous":false},{"type":"error","name":"OwnableInvalidOwner","inputs":[{"name":"owner","type":"address","internalType":"address"}]},{"type":"error","name":"OwnableUnauthorizedAccount","inputs":[{"name":"account","type":"address","internalType":"address"}]},{"type":"error","name":"PolicyGuard__CooldownActive","inputs":[{"name":"token","type":"address","internalType":"address"},{"name":"unlocksAt","type":"uint256","internalType":"uint256"}]},{"type":"error","name":"PolicyGuard__DrawdownExceeded","inputs":[{"name":"currentDrawdown","type":"uint256","internalType":"uint256"},{"name":"limit","type":"uint256","internalType":"uint256"}]},{"type":"error","name":"PolicyGuard__OnlySentinelAccount","inputs":[]},{"type":"error","name":"PolicyGuard__StaleOraclePrice","inputs":[{"name":"feed","type":"address","internalType":"address"},{"name":"updatedAt","type":"uint256","internalType":"uint256"}]},{"type":"error","name":"PolicyGuard__TokenNotWhitelisted","inputs":[{"name":"token","type":"address","internalType":"address"}]},{"type":"error","name":"PolicyGuard__TradeSizeExceeded","inputs":[{"name":"amountUsd","type":"uint256","internalType":"uint256"},{"name":"maxUsd","type":"uint256","internalType":"uint256"}]}],"bytecode":{"object":"0x608060405234801561000f575f80fd5b50604051610da9380380610da983398101604081905261002e916100e2565b338061005357604051631e4fbdf760e01b81525f600482015260240160405180910390fd5b61005c81610093565b50600180546001600160a01b0319166001600160a01b03959095169490941790935560029190915560035560045542600655610129565b5f80546001600160a01b038381166001600160a01b0319831681178455604051919092169283917f8be0079c531659141344cd1fd0a4f28419497f9722a3daafe3b4186f6b6457e09190a35050565b5f805f80608085870312156100f5575f80fd5b84516001600160a01b038116811461010b575f80fd5b60208601516040870151606090970151919890975090945092505050565b610c73806101365f395ff3fe608060405234801561000f575f80fd5b5060043610610111575f3560e01c8063753d75631161009e5780639dcb511a1161006e5780639dcb511a1461022a578063ba80a08314610252578063c118784e14610265578063c9bcc97e1461026e578063f2fde38b14610281575f80fd5b8063753d7563146101b857806376e11286146101ea5780638cf8dda1146101fd5780638da5cb5b14610206575f80fd5b806340e8d553116100e457806340e8d5531461016e5780635593bee9146101775780635af7b5d11461018a5780636022743e1461019d578063715018a6146101b0575f80fd5b806303186eef1461011557806304646a491461014757806315d5c6cc1461015057806329d5c4cc14610159575b5f80fd5b61013461012336600461093e565b60086020525f908152604090205481565b6040519081526020015b60405180910390f35b61013460045481565b61013460075481565b61016c61016736600461095e565b610294565b005b61013460025481565b61016c610185366004610997565b61047e565b61016c61019836600461093e565b6104db565b61016c6101ab3660046109c0565b610505565b61016c610595565b6101da6101c636600461093e565b60056020525f908152604090205460ff1681565b604051901515815260200161013e565b61016c6101f83660046109d7565b6105a8565b61013460035481565b5f546001600160a01b03165b6040516001600160a01b03909116815260200161013e565b61021261023836600461093e565b60096020525f90815260409020546001600160a01b031681565b600154610212906001600160a01b031681565b61013460065481565b61016c61027c366004610a08565b610606565b61016c61028f36600461093e565b61066c565b6001546001600160a01b031633146102bf57604051630be0803160e11b815260040160405180910390fd5b6001600160a01b0383165f9081526005602052604090205460ff166103075760405163134bd9e960e01b81526001600160a01b03841660048201526024015b60405180910390fd5b6001600160a01b0382165f9081526005602052604090205460ff1661034a5760405163134bd9e960e01b81526001600160a01b03831660048201526024016102fe565b5f61035584836106a6565b9050600254811115610388576002546040516304a6836760e01b81526102fe918391600401918252602082015260400190565b6001600160a01b0384165f90815260086020526040902054158015906103d057506004546001600160a01b0385165f908152600860205260409020546103ce9042610a55565b105b15610425576004546001600160a01b0385165f9081526008602052604090205485916103fb91610a68565b60405163a5ea695960e01b81526001600160a01b03909216600483015260248201526044016102fe565b61042d610888565b6003546007541061046057600754600354604051631824bccd60e21b8152600481019290925260248201526044016102fe565b5050506001600160a01b03165f908152600860205260409020429055565b6104866108a8565b60028390556003829055600481905560408051848152602081018490529081018290527f3badea81551087ffbccf48e1f2096512ab718dfab5d02debd5a148d4bb5a6f579060600160405180910390a1505050565b6104e36108a8565b600180546001600160a01b0319166001600160a01b0392909216919091179055565b6001546001600160a01b0316331461053057604051630be0803160e11b815260040160405180910390fd5b80156105925761053e610888565b8060075f82825461054f9190610a68565b90915550506007546040805183815260208101929092527f547e26fb6f784932d02bef72a0768adadb70319911e7a500be5cc2f13fbd5547910160405180910390a15b50565b61059d6108a8565b6105a65f6108d4565b565b6105b06108a8565b6001600160a01b038281165f8181526009602052604080822080546001600160a01b0319169486169485179055517fd2d8394cf7549a5ddbc2ba3dd7b2de8d53c891472d1f2907008ed6a10045fdae9190a35050565b61060e6108a8565b6001600160a01b0382165f81815260056020908152604091829020805460ff191685151590811790915591519182527fef81a9943b96c8df4ef243401c9bf5159146166211356898b52d382086168d92910160405180910390a25050565b6106746108a8565b6001600160a01b03811661069d57604051631e4fbdf760e01b81525f60048201526024016102fe565b610592816108d4565b6001600160a01b038083165f90815260096020526040812054909116806106d0575f915050610882565b5f80826001600160a01b031663feaf968c6040518163ffffffff1660e01b815260040160a060405180830381865afa15801561070e573d5f803e3d5ffd5b505050506040513d601f19601f820116820180604052508101906107329190610a94565b50935050925050610e1081426107489190610a55565b1115610779576040516303ed10f760e61b81526001600160a01b0384166004820152602481018290526044016102fe565b5f82136107d75760405162461bcd60e51b815260206004820152602660248201527f506f6c69637947756172643a206e6f6e2d706f736974697665206f7261636c6560448201526520707269636560d01b60648201526084016102fe565b5f836001600160a01b031663313ce5676040518163ffffffff1660e01b8152600401602060405180830381865afa158015610814573d5f803e3d5ffd5b505050506040513d601f19601f820116820180604052508101906108389190610ae0565b90505f610846826012610b00565b61085190600a610bf9565b61085b9085610c07565b9050670de0b6b3a76400006108708289610c07565b61087a9190610c1e565b955050505050505b92915050565b6006546108989062015180610a68565b42106105a657426006555f600755565b5f546001600160a01b031633146105a65760405163118cdaa760e01b81523360048201526024016102fe565b5f80546001600160a01b038381166001600160a01b0319831681178455604051919092169283917f8be0079c531659141344cd1fd0a4f28419497f9722a3daafe3b4186f6b6457e09190a35050565b80356001600160a01b0381168114610939575f80fd5b919050565b5f6020828403121561094e575f80fd5b61095782610923565b9392505050565b5f805f60608486031215610970575f80fd5b61097984610923565b925061098760208501610923565b9150604084013590509250925092565b5f805f606084860312156109a9575f80fd5b505081359360208301359350604090920135919050565b5f602082840312156109d0575f80fd5b5035919050565b5f80604083850312156109e8575f80fd5b6109f183610923565b91506109ff60208401610923565b90509250929050565b5f8060408385031215610a19575f80fd5b610a2283610923565b915060208301358015158114610a36575f80fd5b809150509250929050565b634e487b7160e01b5f52601160045260245ffd5b8181038181111561088257610882610a41565b8082018082111561088257610882610a41565b805169ffffffffffffffffffff81168114610939575f80fd5b5f805f805f60a08688031215610aa8575f80fd5b610ab186610a7b565b9450602086015193506040860151925060608601519150610ad460808701610a7b565b90509295509295909350565b5f60208284031215610af0575f80fd5b815160ff81168114610957575f80fd5b60ff828116828216039081111561088257610882610a41565b600181815b80851115610b5357815f1904821115610b3957610b39610a41565b80851615610b4657918102915b93841c9390800290610b1e565b509250929050565b5f82610b6957506001610882565b81610b7557505f610882565b8160018114610b8b5760028114610b9557610bb1565b6001915050610882565b60ff841115610ba657610ba6610a41565b50506001821b610882565b5060208310610133831016604e8410600b8410161715610bd4575081810a610882565b610bde8383610b19565b805f1904821115610bf157610bf1610a41565b029392505050565b5f61095760ff841683610b5b565b808202811582820484141761088257610882610a41565b5f82610c3857634e487b7160e01b5f52601260045260245ffd5b50049056fea2646970667358221220ae88f65627f5f4b12c5778023a9bacc568f45286d750ea909dbd1d1f1797a5ca64736f6c63430008180033","linkReferences":{}},"methodIdentifiers":{"checkPolicy(address,address,uint256)":"29d5c4cc","cooldownPeriod()":"04646a49","cumulativeDrawdown()":"15d5c6cc","dailyDrawdownLimit()":"8cf8dda1","drawdownWindowStart()":"c118784e","lastTradeTime(address)":"03186eef","maxTradeSizeUsd()":"40e8d553","owner()":"8da5cb5b","priceFeeds(address)":"9dcb511a","recordLoss(uint256)":"6022743e","renounceOwnership()":"715018a6","sentinelAccount()":"ba80a083","setPriceFeed(address,address)":"76e11286","setSentinelAccount(address)":"5af7b5d1","setTokenWhitelist(address,bool)":"c9bcc97e","tokenWhitelist(address)":"753d7563","transferOwnership(address)":"f2fde38b","updatePolicy(uint256,uint256,uint256)":"5593bee9"},"id":55}