{"abi":[{"type":"constructor","inputs":[{"name":"_entryPoint","type":"address","internalType":"contract IEntryPoint"}],"stateMutability":"nonpayable"},{"type":"receive","stateMutability":"payable"},{"type":"function","name":"UPGRADE_INTERFACE_VERSION","inputs":[],"outputs":[{"name":"","type":"string","internalType":"string"}],"stateMutability":"view"},{"type":"function","name":"actionLog","inputs":[],"outputs":[{"name":"","type":"address","internalType":"contract ActionLog"}],"stateMutability":"view"},{"type":"function","name":"addDeposit","inputs":[],"outputs":[],"stateMutability":"payable"},{"type":"function","name":"entryPoint","inputs":[],"outputs":[{"name":"","type":"address","internalType":"contract IEntryPoint"}],"stateMutability":"view"},{"type":"function","name":"execute","inputs":[{"name":"dest","type":"address","internalType":"address"},{"name":"value","type":"uint256","internalType":"uint256"},{"name":"func","type":"bytes","internalType":"bytes"}],"outputs":[],"stateMutability":"nonpayable"},{"type":"function","name":"executeBatch","inputs":[{"name":"dest","type":"address[]","internalType":"address[]"},{"name":"value","type":"uint256[]","internalType":"uint256[]"},{"name":"func","type":"bytes[]","internalType":"bytes[]"}],"outputs":[],"stateMutability":"nonpayable"},{"type":"function","name":"executeSwap","inputs":[{"name":"dex","type":"address","internalType":"address"},{"name":"tokenIn","type":"address","internalType":"address"},{"name":"tokenOut","type":"address","internalType":"address"},{"name":"amountIn","type":"uint256","internalType":"uint256"},{"name":"swapCalldata","type":"bytes","internalType":"bytes"},{"name":"reasoningCID","type":"string","internalType":"string"}],"outputs":[],"stateMutability":"nonpayable"},{"type":"function","name":"getDeposit","inputs":[],"outputs":[{"name":"","type":"uint256","internalType":"uint256"}],"stateMutability":"view"},{"type":"function","name":"getNonce","inputs":[],"outputs":[{"name":"","type":"uint256","internalType":"uint256"}],"stateMutability":"view"},{"type":"function","name":"guardian","inputs":[],"outputs":[{"name":"","type":"address","internalType":"address"}],"stateMutability":"view"},{"type":"function","name":"initialize","inputs":[{"name":"anOwner","type":"address","internalType":"address"}],"outputs":[],"stateMutability":"nonpayable"},{"type":"function","name":"initialize","inputs":[{"name":"_owner","type":"address","internalType":"address"},{"name":"_policyGuard","type":"address","internalType":"address"},{"name":"_actionLog","type":"address","internalType":"address"},{"name":"_guardian","type":"address","internalType":"address"}],"outputs":[],"stateMutability":"nonpayable"},{"type":"function","name":"onERC1155BatchReceived","inputs":[{"name":"","type":"address","internalType":"address"},{"name":"","type":"address","internalType":"address"},{"name":"","type":"uint256[]","internalType":"uint256[]"},{"name":"","type":"uint256[]","internalType":"uint256[]"},{"name":"","type":"bytes","internalType":"bytes"}],"outputs":[{"name":"","type":"bytes4","internalType":"bytes4"}],"stateMutability":"pure"},{"type":"function","name":"onERC1155Received","inputs":[{"name":"","type":"address","internalType":"address"},{"name":"","type":"address","internalType":"address"},{"name":"","type":"uint256","internalType":"uint256"},{"name":"","type":"uint256","internalType":"uint256"},{"name":"","type":"bytes","internalType":"bytes"}],"outputs":[{"name":"","type":"bytes4","internalType":"bytes4"}],"stateMutability":"pure"},{"type":"function","name":"onERC721Received","inputs":[{"name":"","type":"address","internalType":"address"},{"name":"","type":"address","internalType":"address"},{"name":"","type":"uint256","internalType":"uint256"},{"name":"","type":"bytes","internalType":"bytes"}],"outputs":[{"name":"","type":"bytes4","internalType":"bytes4"}],"stateMutability":"pure"},{"type":"function","name":"owner","inputs":[],"outputs":[{"name":"","type":"address","internalType":"address"}],"stateMutability":"view"},{"type":"function","name":"policyGuard","inputs":[],"outputs":[{"name":"","type":"address","internalType":"contract PolicyGuard"}],"stateMutability":"view"},{"type":"function","name":"proxiableUUID","inputs":[],"outputs":[{"name":"","type":"bytes32","internalType":"bytes32"}],"stateMutability":"view"},{"type":"function","name":"setActionLog","inputs":[{"name":"_actionLog","type":"address","internalType":"address"}],"outputs":[],"stateMutability":"nonpayable"},{"type":"function","name":"setGuardian","inputs":[{"name":"_guardian","type":"address","internalType":"address"}],"outputs":[],"stateMutability":"nonpayable"},{"type":"function","name":"setPolicyGuard","inputs":[{"name":"_policyGuard","type":"address","internalType":"address"}],"outputs":[],"stateMutability":"nonpayable"},{"type":"function","name":"supportsInterface","inputs":[{"name":"interfaceId","type":"bytes4","internalType":"bytes4"}],"outputs":[{"name":"","type":"bool","internalType":"bool"}],"stateMutability":"view"},{"type":"function","name":"upgradeToAndCall","inputs":[{"name":"newImplementation","type":"address","internalType":"address"},{"name":"data","type":"bytes","internalType":"bytes"}],"outputs":[],"stateMutability":"payable"},{"type":"function","name":"validateUserOp","inputs":[{"name":"userOp","type":"tuple","internalType":"struct PackedUserOperation","components":[{"name":"sender","type":"address","internalType":"address"},{"name":"nonce","type":"uint256","internalType":"uint256"},{"name":"initCode","type":"bytes","internalType":"bytes"},{"name":"callData","type":"bytes","internalType":"bytes"},{"name":"accountGasLimits","type":"bytes32","internalType":"bytes32"},{"name":"preVerificationGas","type":"uint256","internalType":"uint256"},{"name":"gasFees","type":"bytes32","internalType":"bytes32"},{"name":"paymasterAndData","type":"bytes","internalType":"bytes"},{"name":"signature","type":"bytes","internalType":"bytes"}]},{"name":"userOpHash","type":"bytes32","internalType":"bytes32"},{"name":"missingAccountFunds","type":"uint256","internalType":"uint256"}],"outputs":[{"name":"validationData","type":"uint256","internalType":"uint256"}],"stateMutability":"nonpayable"},{"type":"function","name":"withdrawDepositTo","inputs":[{"name":"withdrawAddress","type":"address","internalType":"address payable"},{"name":"amount","type":"uint256","internalType":"uint256"}],"outputs":[],"stateMutability":"nonpayable"},{"type":"event","name":"ActionLogUpdated","inputs":[{"name":"actionLog","type":"address","indexed":true,"internalType":"address"}],"anonymous":false},{"type":"event","name":"GuardianSet","inputs":[{"name":"guardian","type":"address","indexed":true,"internalType":"address"}],"anonymous":false},{"type":"event","name":"Initialized","inputs":[{"name":"version","type":"uint64","indexed":false,"internalType":"uint64"}],"anonymous":false},{"type":"event","name":"PolicyGuardUpdated","inputs":[{"name":"policyGuard","type":"address","indexed":true,"internalType":"address"}],"anonymous":false},{"type":"event","name":"SimpleAccountInitialized","inputs":[{"name":"entryPoint","type":"address","indexed":true,"internalType":"contract IEntryPoint"},{"name":"owner","type":"address","indexed":true,"internalType":"address"}],"anonymous":false},{"type":"event","name":"Upgraded","inputs":[{"name":"implementation","type":"address","indexed":true,"internalType":"address"}],"anonymous":false},{"type":"error","name":"AddressEmptyCode","inputs":[{"name":"target","type":"address","internalType":"address"}]},{"type":"error","name":"ECDSAInvalidSignature","inputs":[]},{"type":"error","name":"ECDSAInvalidSignatureLength","inputs":[{"name":"length","type":"uint256","internalType":"uint256"}]},{"type":"error","name":"ECDSAInvalidSignatureS","inputs":[{"name":"s","type":"bytes32","internalType":"bytes32"}]},{"type":"error","name":"ERC1967InvalidImplementation","inputs":[{"name":"implementation","type":"address","internalType":"address"}]},{"type":"error","name":"ERC1967NonPayable","inputs":[]},{"type":"error","name":"FailedCall","inputs":[]},{"type":"error","name":"InvalidInitialization","inputs":[]},{"type":"error","name":"NotInitializing","inputs":[]},{"type":"error","name":"SentinelAccount__SwapFailed","inputs":[{"name":"reason","type":"bytes","internalType":"bytes"}]},{"type":"error","name":"UUPSUnauthorizedCallContext","inputs":[]},{"type":"error","name":"UUPSUnsupportedProxiableUUID","inputs":[{"name":"slot","type":"bytes32","internalType":"bytes32"}]}],"bytecode":{"object":"0x60c06040523060805234801562000014575f80fd5b506040516200206f3803806200206f83398101604081905262000037916200010b565b6001600160a01b03811660a052806200004f62000057565b50506200013a565b7ff0c57e16840df040f15088dc2f81fe391c3923bec73e23a9662efc9c229c6a00805468010000000000000000900460ff1615620000a85760405163f92ee8a960e01b815260040160405180910390fd5b80546001600160401b0390811614620001085780546001600160401b0319166001600160401b0390811782556040519081527fc7f505b2f371ae2175ee4913f4499e1f2633a7b5936321eed1cdaeb6115181d29060200160405180910390a15b50565b5f602082840312156200011c575f80fd5b81516001600160a01b038116811462000133575f80fd5b9392505050565b60805160a051611ed46200019b5f395f81816103be015281816108c60152818161094a01528181610b0d01528181610c9801528181610e0901528181610e97015261139e01525f81816111a7015281816111d001526113140152611ed45ff3fe608060405260043610610164575f3560e01c80638a0dac4a116100cd578063bc197c8111610087578063c4d66de811610062578063c4d66de814610462578063d087d28814610481578063f23a6e6114610495578063f8c8765e146104c1575f80fd5b8063bc197c8114610401578063c0485dba1461042f578063c399ec881461044e575f80fd5b80638a0dac4a146103175780638da5cb5b1461033657806394abcbde14610354578063ad3cb1cc14610373578063b0d691fe146103b0578063b61d27f6146103e2575f80fd5b8063452a93201161011e578063452a93201461028b57806347e1da2a146102aa5780634a58db19146102c95780634d44560d146102d15780634f1ef286146102f057806352d1902d14610303575f80fd5b806301ffc9a71461016f578063150b7a02146101a357806316d7b1a0146101e757806319822f7c146102085780631a155d16146102355780632c8cc4ac14610254575f80fd5b3661016b57005b5f80fd5b34801561017a575f80fd5b5061018e610189366004611787565b6104e0565b60405190151581526020015b60405180910390f35b3480156101ae575f80fd5b506101ce6101bd366004611806565b630a85bd0160e11b95945050505050565b6040516001600160e01b0319909116815260200161019a565b3480156101f2575f80fd5b50610206610201366004611873565b610531565b005b348015610213575f80fd5b5061022761022236600461188e565b610582565b60405190815260200161019a565b348015610240575f80fd5b5061020661024f3660046118dc565b6105a7565b34801561025f575f80fd5b50600154610273906001600160a01b031681565b6040516001600160a01b03909116815260200161019a565b348015610296575f80fd5b50600354610273906001600160a01b031681565b3480156102b5575f80fd5b506102066102c43660046119c5565b61074b565b6102066108c4565b3480156102dc575f80fd5b506102066102eb366004611a57565b610940565b6102066102fe366004611a95565b6109c4565b34801561030e575f80fd5b506102276109e3565b348015610322575f80fd5b50610206610331366004611873565b6109fe565b348015610341575f80fd5b505f54610273906001600160a01b031681565b34801561035f575f80fd5b50600254610273906001600160a01b031681565b34801561037e575f80fd5b506103a3604051806040016040528060058152602001640352e302e360dc1b81525081565b60405161019a9190611b9f565b3480156103bb575f80fd5b507f0000000000000000000000000000000000000000000000000000000000000000610273565b3480156103ed575f80fd5b506102066103fc366004611bb1565b610a4f565b34801561040c575f80fd5b506101ce61041b366004611c08565b63bc197c8160e01b98975050505050505050565b34801561043a575f80fd5b50610206610449366004611873565b610a9d565b348015610459575f80fd5b50610227610aee565b34801561046d575f80fd5b5061020661047c366004611873565b610b7c565b34801561048c575f80fd5b50610227610c72565b3480156104a0575f80fd5b506101ce6104af366004611c9d565b63f23a6e6160e01b9695505050505050565b3480156104cc575f80fd5b506102066104db366004611d01565b610cc7565b5f6001600160e01b03198216630a85bd0160e11b148061051057506001600160e01b03198216630271189760e51b145b8061052b57506001600160e01b031982166301ffc9a760e01b145b92915050565b610539610dfe565b600280546001600160a01b0319166001600160a01b0383169081179091556040517fc256fb1ada1241d827ec586a490ccddc39b5c70ffcfe2a3a57e93e21c6b91431905f90a250565b5f61058b610e8c565b6105958484610f04565b90506105a082610fa7565b9392505050565b6105af610dfe565b600154604051630a75713360e21b81526001600160a01b038981166004830152888116602483015260448201889052909116906329d5c4cc906064015f604051808303815f87803b158015610602575f80fd5b505af1158015610614573d5f803e3d5ffd5b505050505f61062287610ff0565b90505f808a6001600160a01b03168787604051610640929190611d5a565b5f604051808303815f865af19150503d805f8114610679576040519150601f19603f3d011682016040523d82523d5f602084013e61067e565b606091505b5091509150816106ac57806040516348a85a5160e01b81526004016106a39190611b9f565b60405180910390fd5b5f836106b78b610ff0565b6106c19190611d69565b60025460405163f44b21bf60e01b81529192506001600160a01b03169063f44b21bf906106fc908e908e908e9087908d908d90600401611d88565b6020604051808303815f875af1158015610718573d5f803e3d5ffd5b505050506040513d601f19601f8201168201806040525081019061073c9190611de2565b50505050505050505050505050565b610753610dfe565b8481148015610769575082158061076957508281145b6107ab5760405162461bcd60e51b815260206004820152601360248201527277726f6e67206172726179206c656e6774687360681b60448201526064016106a3565b5f839003610853575f5b8581101561084d576108458787838181106107d2576107d2611df9565b90506020020160208101906107e79190611873565b5f8585858181106107fa576107fa611df9565b905060200281019061080c9190611e0d565b8080601f0160208091040260200160405190810160405280939291908181526020018383808284375f920191909152506110e092505050565b6001016107b5565b506108bc565b5f5b858110156108ba576108b287878381811061087257610872611df9565b90506020020160208101906108879190611873565b86868481811061089957610899611df9565b905060200201358585858181106107fa576107fa611df9565b600101610855565b505b505050505050565b7f000000000000000000000000000000000000000000000000000000000000000060405163b760faf960e01b81523060048201526001600160a01b03919091169063b760faf99034906024015f604051808303818588803b158015610927575f80fd5b505af1158015610939573d5f803e3d5ffd5b5050505050565b61094861114c565b7f000000000000000000000000000000000000000000000000000000000000000060405163040b850f60e31b81526001600160a01b03848116600483015260248201849052919091169063205c2878906044015f604051808303815f87803b1580156109b2575f80fd5b505af11580156108bc573d5f803e3d5ffd5b6109cc61119c565b6109d582611240565b6109df8282611248565b5050565b5f6109ec611309565b505f80516020611e7f83398151915290565b610a06610dfe565b600380546001600160a01b0319166001600160a01b0383169081179091556040517fe6c09ffe4572dc9ceaa5ddde4ae41befa655d6fdfe8052077af0970f700e942e905f90a250565b610a57610dfe565b610a97848484848080601f0160208091040260200160405190810160405280939291908181526020018383808284375f920191909152506110e092505050565b50505050565b610aa5610dfe565b600180546001600160a01b0319166001600160a01b0383169081179091556040517f90bd987d329d0f564869590f92b896030ae1463d2305747226862d96c22c8f90905f90a250565b6040516370a0823160e01b81523060048201525f906001600160a01b037f000000000000000000000000000000000000000000000000000000000000000016906370a08231906024015b602060405180830381865afa158015610b53573d5f803e3d5ffd5b505050506040513d601f19601f82011682018060405250810190610b779190611de2565b905090565b5f610b85611352565b805490915060ff600160401b82041615906001600160401b03165f81158015610bab5750825b90505f826001600160401b03166001148015610bc65750303b155b905081158015610bd4575080155b15610bf25760405163f92ee8a960e01b815260040160405180910390fd5b845467ffffffffffffffff191660011785558315610c1c57845460ff60401b1916600160401b1785555b610c258661137a565b83156108bc57845460ff60401b19168555604051600181527fc7f505b2f371ae2175ee4913f4499e1f2633a7b5936321eed1cdaeb6115181d29060200160405180910390a1505050505050565b604051631aab3f0d60e11b81523060048201525f60248201819052906001600160a01b037f000000000000000000000000000000000000000000000000000000000000000016906335567e1a90604401610b38565b5f610cd0611352565b805490915060ff600160401b82041615906001600160401b03165f81158015610cf65750825b90505f826001600160401b03166001148015610d115750303b155b905081158015610d1f575080155b15610d3d5760405163f92ee8a960e01b815260040160405180910390fd5b845467ffffffffffffffff191660011785558315610d6757845460ff60401b1916600160401b1785555b610d7089610b7c565b600180546001600160a01b03808b166001600160a01b031992831617909255600280548a841690831617905560038054928916929091169190911790558315610df357845460ff60401b19168555604051600181527fc7f505b2f371ae2175ee4913f4499e1f2633a7b5936321eed1cdaeb6115181d29060200160405180910390a15b505050505050505050565b336001600160a01b037f0000000000000000000000000000000000000000000000000000000000000000161480610e3e57505f546001600160a01b031633145b610e8a5760405162461bcd60e51b815260206004820181905260248201527f6163636f756e743a206e6f74204f776e6572206f7220456e747279506f696e7460448201526064016106a3565b565b336001600160a01b037f00000000000000000000000000000000000000000000000000000000000000001614610e8a5760405162461bcd60e51b815260206004820152601c60248201527f6163636f756e743a206e6f742066726f6d20456e747279506f696e740000000060448201526064016106a3565b7f19457468657265756d205369676e6564204d6573736167653a0a3332000000005f908152601c829052603c8120610f7d81610f44610100870187611e0d565b8080601f0160208091040260200160405190810160405280939291908181526020018383808284375f920191909152506113e892505050565b5f546001600160a01b03908116911614610f9b57600191505061052b565b505f9392505050565b50565b8015610fa4576040515f9033905f1990849084818181858888f193505050503d805f8114610939576040519150601f19603f3d011682016040523d82523d5f602084013e610939565b6040513060248201525f90819081906001600160a01b0385169060440160408051601f198184030181529181526020820180516001600160e01b03166370a0823160e01b179052516110429190611e4f565b5f60405180830381855afa9150503d805f811461107a576040519150601f19603f3d011682016040523d82523d5f602084013e61107f565b606091505b5091509150816110c45760405162461bcd60e51b815260206004820152601060248201526f18985b185b98d953d98819985a5b195960821b60448201526064016106a3565b808060200190518101906110d89190611de2565b949350505050565b5f80846001600160a01b031684846040516110fb9190611e4f565b5f6040518083038185875af1925050503d805f8114611135576040519150601f19603f3d011682016040523d82523d5f602084013e61113a565b606091505b50915091508161093957805160208201fd5b5f546001600160a01b031633148061116357503330145b610e8a5760405162461bcd60e51b815260206004820152600a60248201526937b7363c9037bbb732b960b11b60448201526064016106a3565b306001600160a01b037f000000000000000000000000000000000000000000000000000000000000000016148061122257507f00000000000000000000000000000000000000000000000000000000000000006001600160a01b03166112165f80516020611e7f833981519152546001600160a01b031690565b6001600160a01b031614155b15610e8a5760405163703e46dd60e11b815260040160405180910390fd5b610fa461114c565b816001600160a01b03166352d1902d6040518163ffffffff1660e01b8152600401602060405180830381865afa9250505080156112a2575060408051601f3d908101601f1916820190925261129f91810190611de2565b60015b6112ca57604051634c9c8ce360e01b81526001600160a01b03831660048201526024016106a3565b5f80516020611e7f83398151915281146112fa57604051632a87526960e21b8152600481018290526024016106a3565b6113048383611410565b505050565b306001600160a01b037f00000000000000000000000000000000000000000000000000000000000000001614610e8a5760405163703e46dd60e11b815260040160405180910390fd5b5f807ff0c57e16840df040f15088dc2f81fe391c3923bec73e23a9662efc9c229c6a0061052b565b5f80546001600160a01b0319166001600160a01b03838116918217835560405191927f0000000000000000000000000000000000000000000000000000000000000000909116917f47e55c76e7a6f1fd8996a1da8008c1ea29699cca35e7bcd057f2dec313b6e5de9190a350565b5f805f806113f68686611465565b92509250925061140682826114ae565b5090949350505050565b61141982611566565b6040516001600160a01b038316907fbc7cd75a20ee27fd9adebab32041f755214dbc6bffa90cc0225b39da2e5c2d3b905f90a280511561145d5761130482826115c9565b6109df611669565b5f805f835160410361149c576020840151604085015160608601515f1a61148e88828585611688565b9550955095505050506114a7565b505081515f91506002905b9250925092565b5f8260038111156114c1576114c1611e6a565b036114ca575050565b60018260038111156114de576114de611e6a565b036114fc5760405163f645eedf60e01b815260040160405180910390fd5b600282600381111561151057611510611e6a565b036115315760405163fce698f760e01b8152600481018290526024016106a3565b600382600381111561154557611545611e6a565b036109df576040516335e2f38360e21b8152600481018290526024016106a3565b806001600160a01b03163b5f0361159b57604051634c9c8ce360e01b81526001600160a01b03821660048201526024016106a3565b5f80516020611e7f83398151915280546001600160a01b0319166001600160a01b0392909216919091179055565b60605f6115d68484611750565b90508080156115f757505f3d11806115f757505f846001600160a01b03163b115b1561160c57611604611763565b91505061052b565b801561163657604051639996b31560e01b81526001600160a01b03851660048201526024016106a3565b3d156116495761164461177c565b611662565b60405163d6bda27560e01b815260040160405180910390fd5b5092915050565b3415610e8a5760405163b398979f60e01b815260040160405180910390fd5b5f80807f7fffffffffffffffffffffffffffffff5d576e7357a4501ddfe92f46681b20a08411156116c157505f91506003905082611746565b604080515f808252602082018084528a905260ff891692820192909252606081018790526080810186905260019060a0016020604051602081039080840390855afa158015611712573d5f803e3d5ffd5b5050604051601f1901519150506001600160a01b03811661173d57505f925060019150829050611746565b92505f91508190505b9450945094915050565b5f805f835160208501865af49392505050565b6040513d81523d5f602083013e3d602001810160405290565b6040513d5f823e3d81fd5b5f60208284031215611797575f80fd5b81356001600160e01b0319811681146105a0575f80fd5b6001600160a01b0381168114610fa4575f80fd5b5f8083601f8401126117d2575f80fd5b5081356001600160401b038111156117e8575f80fd5b6020830191508360208285010111156117ff575f80fd5b9250929050565b5f805f805f6080868803121561181a575f80fd5b8535611825816117ae565b94506020860135611835816117ae565b93506040860135925060608601356001600160401b03811115611856575f80fd5b611862888289016117c2565b969995985093965092949392505050565b5f60208284031215611883575f80fd5b81356105a0816117ae565b5f805f606084860312156118a0575f80fd5b83356001600160401b038111156118b5575f80fd5b840161012081870312156118c7575f80fd5b95602085013595506040909401359392505050565b5f805f805f805f8060c0898b0312156118f3575f80fd5b88356118fe816117ae565b9750602089013561190e816117ae565b9650604089013561191e816117ae565b95506060890135945060808901356001600160401b0380821115611940575f80fd5b61194c8c838d016117c2565b909650945060a08b0135915080821115611964575f80fd5b506119718b828c016117c2565b999c989b5096995094979396929594505050565b5f8083601f840112611995575f80fd5b5081356001600160401b038111156119ab575f80fd5b6020830191508360208260051b85010111156117ff575f80fd5b5f805f805f80606087890312156119da575f80fd5b86356001600160401b03808211156119f0575f80fd5b6119fc8a838b01611985565b90985096506020890135915080821115611a14575f80fd5b611a208a838b01611985565b90965094506040890135915080821115611a38575f80fd5b50611a4589828a01611985565b979a9699509497509295939492505050565b5f8060408385031215611a68575f80fd5b8235611a73816117ae565b946020939093013593505050565b634e487b7160e01b5f52604160045260245ffd5b5f8060408385031215611aa6575f80fd5b8235611ab1816117ae565b915060208301356001600160401b0380821115611acc575f80fd5b818501915085601f830112611adf575f80fd5b813581811115611af157611af1611a81565b604051601f8201601f19908116603f01168101908382118183101715611b1957611b19611a81565b81604052828152886020848701011115611b31575f80fd5b826020860160208301375f6020848301015280955050505050509250929050565b5f5b83811015611b6c578181015183820152602001611b54565b50505f910152565b5f8151808452611b8b816020860160208601611b52565b601f01601f19169290920160200192915050565b602081525f6105a06020830184611b74565b5f805f8060608587031215611bc4575f80fd5b8435611bcf816117ae565b93506020850135925060408501356001600160401b03811115611bf0575f80fd5b611bfc878288016117c2565b95989497509550505050565b5f805f805f805f8060a0898b031215611c1f575f80fd5b8835611c2a816117ae565b97506020890135611c3a816117ae565b965060408901356001600160401b0380821115611c55575f80fd5b611c618c838d01611985565b909850965060608b0135915080821115611c79575f80fd5b611c858c838d01611985565b909650945060808b0135915080821115611964575f80fd5b5f805f805f8060a08789031215611cb2575f80fd5b8635611cbd816117ae565b95506020870135611ccd816117ae565b9450604087013593506060870135925060808701356001600160401b03811115611cf5575f80fd5b611a4589828a016117c2565b5f805f8060808587031215611d14575f80fd5b8435611d1f816117ae565b93506020850135611d2f816117ae565b92506040850135611d3f816117ae565b91506060850135611d4f816117ae565b939692955090935050565b818382375f9101908152919050565b8181038181111561052b57634e487b7160e01b5f52601160045260245ffd5b6001600160a01b03878116825286166020820152604081018590526060810184905260a06080820181905281018290525f828460c08401375f60c0848401015260c0601f19601f8501168301019050979650505050505050565b5f60208284031215611df2575f80fd5b5051919050565b634e487b7160e01b5f52603260045260245ffd5b5f808335601e19843603018112611e22575f80fd5b8301803591506001600160401b03821115611e3b575f80fd5b6020019150368190038213156117ff575f80fd5b5f8251611e60818460208701611b52565b9190910192915050565b634e487b7160e01b5f52602160045260245ffdfe360894a13ba1a3210667c828492db98dca3e2076cc3735a920a3ca505d382bbca26469706673582212200ba6a1fbb6e6ae2aca650b2e4d5bca6156efd1fb6e51993f36f3ce7700608a4164736f6c63430008180033","linkReferences":{}},"methodIdentifiers":{"UPGRADE_INTERFACE_VERSION()":"ad3cb1cc","actionLog()":"94abcbde","addDeposit()":"4a58db19","entryPoint()":"b0d691fe","execute(address,uint256,bytes)":"b61d27f6","executeBatch(address[],uint256[],bytes[])":"47e1da2a","executeSwap(address,address,address,uint256,bytes,string)":"1a155d16","getDeposit()":"c399ec88","getNonce()":"d087d288","guardian()":"452a9320","initialize(address)":"c4d66de8","initialize(address,address,address,address)":"f8c8765e","onERC1155BatchReceived(address,address,uint256[],uint256[],bytes)":"bc197c81","onERC1155Received(address,address,uint256,uint256,bytes)":"f23a6e61","onERC721Received(address,address,uint256,bytes)":"150b7a02","owner()":"8da5cb5b","policyGuard()":"2c8cc4ac","proxiableUUID()":"52d1902d","setActionLog(address)":"16d7b1a0","setGuardian(address)":"8a0dac4a","setPolicyGuard(address)":"c0485dba","supportsInterface(bytes4)":"01ffc9a7","upgradeToAndCall(address,bytes)":"4f1ef286","validateUserOp((address,uint256,bytes,bytes,bytes32,uint256,bytes32,bytes,bytes),bytes32,uint256)":"19822f7c","withdrawDepositTo(address,uint256)":"4d44560d"},"id":56}