{"abi":[{"type":"constructor","inputs":[{"name":"anEntryPoint","type":"address","internalType":"contract IEntryPoint"}],"stateMutability":"nonpayable"},{"type":"receive","stateMutability":"payable"},{"type":"function","name":"UPGRADE_INTERFACE_VERSION","inputs":[],"outputs":[{"name":"","type":"string","internalType":"string"}],"stateMutability":"view"},{"type":"function","name":"addDeposit","inputs":[],"outputs":[],"stateMutability":"payable"},{"type":"function","name":"entryPoint","inputs":[],"outputs":[{"name":"","type":"address","internalType":"contract IEntryPoint"}],"stateMutability":"view"},{"type":"function","name":"execute","inputs":[{"name":"dest","type":"address","internalType":"address"},{"name":"value","type":"uint256","internalType":"uint256"},{"name":"func","type":"bytes","internalType":"bytes"}],"outputs":[],"stateMutability":"nonpayable"},{"type":"function","name":"executeBatch","inputs":[{"name":"dest","type":"address[]","internalType":"address[]"},{"name":"value","type":"uint256[]","internalType":"uint256[]"},{"name":"func","type":"bytes[]","internalType":"bytes[]"}],"outputs":[],"stateMutability":"nonpayable"},{"type":"function","name":"getDeposit","inputs":[],"outputs":[{"name":"","type":"uint256","internalType":"uint256"}],"stateMutability":"view"},{"type":"function","name":"getNonce","inputs":[],"outputs":[{"name":"","type":"uint256","internalType":"uint256"}],"stateMutability":"view"},{"type":"function","name":"initialize","inputs":[{"name":"anOwner","type":"address","internalType":"address"}],"outputs":[],"stateMutability":"nonpayable"},{"type":"function","name":"onERC1155BatchReceived","inputs":[{"name":"","type":"address","internalType":"address"},{"name":"","type":"address","internalType":"address"},{"name":"","type":"uint256[]","internalType":"uint256[]"},{"name":"","type":"uint256[]","internalType":"uint256[]"},{"name":"","type":"bytes","internalType":"bytes"}],"outputs":[{"name":"","type":"bytes4","internalType":"bytes4"}],"stateMutability":"pure"},{"type":"function","name":"onERC1155Received","inputs":[{"name":"","type":"address","internalType":"address"},{"name":"","type":"address","internalType":"address"},{"name":"","type":"uint256","internalType":"uint256"},{"name":"","type":"uint256","internalType":"uint256"},{"name":"","type":"bytes","internalType":"bytes"}],"outputs":[{"name":"","type":"bytes4","internalType":"bytes4"}],"stateMutability":"pure"},{"type":"function","name":"onERC721Received","inputs":[{"name":"","type":"address","internalType":"address"},{"name":"","type":"address","internalType":"address"},{"name":"","type":"uint256","internalType":"uint256"},{"name":"","type":"bytes","internalType":"bytes"}],"outputs":[{"name":"","type":"bytes4","internalType":"bytes4"}],"stateMutability":"pure"},{"type":"function","name":"owner","inputs":[],"outputs":[{"name":"","type":"address","internalType":"address"}],"stateMutability":"view"},{"type":"function","name":"proxiableUUID","inputs":[],"outputs":[{"name":"","type":"bytes32","internalType":"bytes32"}],"stateMutability":"view"},{"type":"function","name":"supportsInterface","inputs":[{"name":"interfaceId","type":"bytes4","internalType":"bytes4"}],"outputs":[{"name":"","type":"bool","internalType":"bool"}],"stateMutability":"view"},{"type":"function","name":"upgradeToAndCall","inputs":[{"name":"newImplementation","type":"address","internalType":"address"},{"name":"data","type":"bytes","internalType":"bytes"}],"outputs":[],"stateMutability":"payable"},{"type":"function","name":"validateUserOp","inputs":[{"name":"userOp","type":"tuple","internalType":"struct PackedUserOperation","components":[{"name":"sender","type":"address","internalType":"address"},{"name":"nonce","type":"uint256","internalType":"uint256"},{"name":"initCode","type":"bytes","internalType":"bytes"},{"name":"callData","type":"bytes","internalType":"bytes"},{"name":"accountGasLimits","type":"bytes32","internalType":"bytes32"},{"name":"preVerificationGas","type":"uint256","internalType":"uint256"},{"name":"gasFees","type":"bytes32","internalType":"bytes32"},{"name":"paymasterAndData","type":"bytes","internalType":"bytes"},{"name":"signature","type":"bytes","internalType":"bytes"}]},{"name":"userOpHash","type":"bytes32","internalType":"bytes32"},{"name":"missingAccountFunds","type":"uint256","internalType":"uint256"}],"outputs":[{"name":"validationData","type":"uint256","internalType":"uint256"}],"stateMutability":"nonpayable"},{"type":"function","name":"withdrawDepositTo","inputs":[{"name":"withdrawAddress","type":"address","internalType":"address payable"},{"name":"amount","type":"uint256","internalType":"uint256"}],"outputs":[],"stateMutability":"nonpayable"},{"type":"event","name":"Initialized","inputs":[{"name":"version","type":"uint64","indexed":false,"internalType":"uint64"}],"anonymous":false},{"type":"event","name":"SimpleAccountInitialized","inputs":[{"name":"entryPoint","type":"address","indexed":true,"internalType":"contract IEntryPoint"},{"name":"owner","type":"address","indexed":true,"internalType":"address"}],"anonymous":false},{"type":"event","name":"Upgraded","inputs":[{"name":"implementation","type":"address","indexed":true,"internalType":"address"}],"anonymous":false},{"type":"error","name":"AddressEmptyCode","inputs":[{"name":"target","type":"address","internalType":"address"}]},{"type":"error","name":"ECDSAInvalidSignature","inputs":[]},{"type":"error","name":"ECDSAInvalidSignatureLength","inputs":[{"name":"length","type":"uint256","internalType":"uint256"}]},{"type":"error","name":"ECDSAInvalidSignatureS","inputs":[{"name":"s","type":"bytes32","internalType":"bytes32"}]},{"type":"error","name":"ERC1967InvalidImplementation","inputs":[{"name":"implementation","type":"address","internalType":"address"}]},{"type":"error","name":"ERC1967NonPayable","inputs":[]},{"type":"error","name":"FailedCall","inputs":[]},{"type":"error","name":"InvalidInitialization","inputs":[]},{"type":"error","name":"NotInitializing","inputs":[]},{"type":"error","name":"UUPSUnauthorizedCallContext","inputs":[]},{"type":"error","name":"UUPSUnsupportedProxiableUUID","inputs":[{"name":"slot","type":"bytes32","internalType":"bytes32"}]}],"bytecode":{"object":"0x60c060405230608052348015610013575f80fd5b50604051620018e3380380620018e383398101604081905261003491610101565b6001600160a01b03811660a05261004961004f565b5061012e565b7ff0c57e16840df040f15088dc2f81fe391c3923bec73e23a9662efc9c229c6a00805468010000000000000000900460ff161561009f5760405163f92ee8a960e01b815260040160405180910390fd5b80546001600160401b03908116146100fe5780546001600160401b0319166001600160401b0390811782556040519081527fc7f505b2f371ae2175ee4913f4499e1f2633a7b5936321eed1cdaeb6115181d29060200160405180910390a15b50565b5f60208284031215610111575f80fd5b81516001600160a01b0381168114610127575f80fd5b9392505050565b60805160a0516117546200018f5f395f818161029d01528181610577015281816105fb0152818161071c015281816108a9015281816108e301528181610a490152610d8801525f8181610b9101528181610bba0152610cfe01526117545ff3fe6080604052600436106100fd575f3560e01c80638da5cb5b11610092578063bc197c8111610062578063bc197c81146102e0578063c399ec881461030e578063c4d66de814610322578063d087d28814610341578063f23a6e6114610355575f80fd5b80638da5cb5b1461021c578063ad3cb1cc14610252578063b0d691fe1461028f578063b61d27f6146102c1575f80fd5b80634a58db19116100cd5780634a58db19146101ce5780634d44560d146101d65780634f1ef286146101f557806352d1902d14610208575f80fd5b806301ffc9a714610108578063150b7a021461013c57806319822f7c1461018057806347e1da2a146101ad575f80fd5b3661010457005b5f80fd5b348015610113575f80fd5b50610127610122366004611171565b610381565b60405190151581526020015b60405180910390f35b348015610147575f80fd5b506101676101563660046111f1565b630a85bd0160e11b95945050505050565b6040516001600160e01b03199091168152602001610133565b34801561018b575f80fd5b5061019f61019a36600461125f565b6103d2565b604051908152602001610133565b3480156101b8575f80fd5b506101cc6101c73660046112ef565b6103f7565b005b6101cc610575565b3480156101e1575f80fd5b506101cc6101f0366004611382565b6105f1565b6101cc6102033660046113c0565b610675565b348015610213575f80fd5b5061019f610694565b348015610227575f80fd5b505f5461023a906001600160a01b031681565b6040516001600160a01b039091168152602001610133565b34801561025d575f80fd5b50610282604051806040016040528060058152602001640352e302e360dc1b81525081565b60405161013391906114a0565b34801561029a575f80fd5b507f000000000000000000000000000000000000000000000000000000000000000061023a565b3480156102cc575f80fd5b506101cc6102db3660046114d2565b6106af565b3480156102eb575f80fd5b506101676102fa36600461152a565b63bc197c8160e01b98975050505050505050565b348015610319575f80fd5b5061019f6106fd565b34801561032d575f80fd5b506101cc61033c3660046115e1565b61078b565b34801561034c575f80fd5b5061019f610883565b348015610360575f80fd5b5061016761036f3660046115fc565b63f23a6e6160e01b9695505050505050565b5f6001600160e01b03198216630a85bd0160e11b14806103b157506001600160e01b03198216630271189760e51b145b806103cc57506001600160e01b031982166301ffc9a760e01b145b92915050565b5f6103db6108d8565b6103e58484610952565b90506103f0826109f5565b9392505050565b6103ff610a3e565b8481148015610415575082158061041557508281145b61045c5760405162461bcd60e51b815260206004820152601360248201527277726f6e67206172726179206c656e6774687360681b60448201526064015b60405180910390fd5b5f839003610504575f5b858110156104fe576104f687878381811061048357610483611661565b905060200201602081019061049891906115e1565b5f8585858181106104ab576104ab611661565b90506020028101906104bd9190611675565b8080601f0160208091040260200160405190810160405280939291908181526020018383808284375f92019190915250610aca92505050565b600101610466565b5061056d565b5f5b8581101561056b5761056387878381811061052357610523611661565b905060200201602081019061053891906115e1565b86868481811061054a5761054a611661565b905060200201358585858181106104ab576104ab611661565b600101610506565b505b505050505050565b7f000000000000000000000000000000000000000000000000000000000000000060405163b760faf960e01b81523060048201526001600160a01b03919091169063b760faf99034906024015f604051808303818588803b1580156105d8575f80fd5b505af11580156105ea573d5f803e3d5ffd5b5050505050565b6105f9610b36565b7f000000000000000000000000000000000000000000000000000000000000000060405163040b850f60e31b81526001600160a01b03848116600483015260248201849052919091169063205c2878906044015f604051808303815f87803b158015610663575f80fd5b505af115801561056d573d5f803e3d5ffd5b61067d610b86565b61068682610c2a565b6106908282610c32565b5050565b5f61069d610cf3565b505f805160206116ff83398151915290565b6106b7610a3e565b6106f7848484848080601f0160208091040260200160405190810160405280939291908181526020018383808284375f92019190915250610aca92505050565b50505050565b6040516370a0823160e01b81523060048201525f906001600160a01b037f000000000000000000000000000000000000000000000000000000000000000016906370a08231906024015b602060405180830381865afa158015610762573d5f803e3d5ffd5b505050506040513d601f19601f8201168201806040525081019061078691906116b8565b905090565b5f610794610d3c565b805490915060ff600160401b820416159067ffffffffffffffff165f811580156107bb5750825b90505f8267ffffffffffffffff1660011480156107d75750303b155b9050811580156107e5575080155b156108035760405163f92ee8a960e01b815260040160405180910390fd5b845467ffffffffffffffff19166001178555831561082d57845460ff60401b1916600160401b1785555b61083686610d64565b831561056d57845460ff60401b19168555604051600181527fc7f505b2f371ae2175ee4913f4499e1f2633a7b5936321eed1cdaeb6115181d29060200160405180910390a1505050505050565b604051631aab3f0d60e11b81523060048201525f60248201819052906001600160a01b037f000000000000000000000000000000000000000000000000000000000000000016906335567e1a90604401610747565b336001600160a01b037f000000000000000000000000000000000000000000000000000000000000000016146109505760405162461bcd60e51b815260206004820152601c60248201527f6163636f756e743a206e6f742066726f6d20456e747279506f696e74000000006044820152606401610453565b565b7f19457468657265756d205369676e6564204d6573736167653a0a3332000000005f908152601c829052603c81206109cb81610992610100870187611675565b8080601f0160208091040260200160405190810160405280939291908181526020018383808284375f92019190915250610dd292505050565b5f546001600160a01b039081169116146109e95760019150506103cc565b505f9392505050565b50565b80156109f2576040515f9033905f1990849084818181858888f193505050503d805f81146105ea576040519150601f19603f3d011682016040523d82523d5f602084013e6105ea565b336001600160a01b037f0000000000000000000000000000000000000000000000000000000000000000161480610a7e57505f546001600160a01b031633145b6109505760405162461bcd60e51b815260206004820181905260248201527f6163636f756e743a206e6f74204f776e6572206f7220456e747279506f696e746044820152606401610453565b5f80846001600160a01b03168484604051610ae591906116cf565b5f6040518083038185875af1925050503d805f8114610b1f576040519150601f19603f3d011682016040523d82523d5f602084013e610b24565b606091505b5091509150816105ea57805160208201fd5b5f546001600160a01b0316331480610b4d57503330145b6109505760405162461bcd60e51b815260206004820152600a60248201526937b7363c9037bbb732b960b11b6044820152606401610453565b306001600160a01b037f0000000000000000000000000000000000000000000000000000000000000000161480610c0c57507f00000000000000000000000000000000000000000000000000000000000000006001600160a01b0316610c005f805160206116ff833981519152546001600160a01b031690565b6001600160a01b031614155b156109505760405163703e46dd60e11b815260040160405180910390fd5b6109f2610b36565b816001600160a01b03166352d1902d6040518163ffffffff1660e01b8152600401602060405180830381865afa925050508015610c8c575060408051601f3d908101601f19168201909252610c89918101906116b8565b60015b610cb457604051634c9c8ce360e01b81526001600160a01b0383166004820152602401610453565b5f805160206116ff8339815191528114610ce457604051632a87526960e21b815260048101829052602401610453565b610cee8383610dfa565b505050565b306001600160a01b037f000000000000000000000000000000000000000000000000000000000000000016146109505760405163703e46dd60e11b815260040160405180910390fd5b5f807ff0c57e16840df040f15088dc2f81fe391c3923bec73e23a9662efc9c229c6a006103cc565b5f80546001600160a01b0319166001600160a01b03838116918217835560405191927f0000000000000000000000000000000000000000000000000000000000000000909116917f47e55c76e7a6f1fd8996a1da8008c1ea29699cca35e7bcd057f2dec313b6e5de9190a350565b5f805f80610de08686610e4f565b925092509250610df08282610e98565b5090949350505050565b610e0382610f50565b6040516001600160a01b038316907fbc7cd75a20ee27fd9adebab32041f755214dbc6bffa90cc0225b39da2e5c2d3b905f90a2805115610e4757610cee8282610fb3565b610690611053565b5f805f8351604103610e86576020840151604085015160608601515f1a610e7888828585611072565b955095509550505050610e91565b505081515f91506002905b9250925092565b5f826003811115610eab57610eab6116ea565b03610eb4575050565b6001826003811115610ec857610ec86116ea565b03610ee65760405163f645eedf60e01b815260040160405180910390fd5b6002826003811115610efa57610efa6116ea565b03610f1b5760405163fce698f760e01b815260048101829052602401610453565b6003826003811115610f2f57610f2f6116ea565b03610690576040516335e2f38360e21b815260048101829052602401610453565b806001600160a01b03163b5f03610f8557604051634c9c8ce360e01b81526001600160a01b0382166004820152602401610453565b5f805160206116ff83398151915280546001600160a01b0319166001600160a01b0392909216919091179055565b60605f610fc0848461113a565b9050808015610fe157505f3d1180610fe157505f846001600160a01b03163b115b15610ff657610fee61114d565b9150506103cc565b801561102057604051639996b31560e01b81526001600160a01b0385166004820152602401610453565b3d156110335761102e611166565b61104c565b60405163d6bda27560e01b815260040160405180910390fd5b5092915050565b34156109505760405163b398979f60e01b815260040160405180910390fd5b5f80807f7fffffffffffffffffffffffffffffff5d576e7357a4501ddfe92f46681b20a08411156110ab57505f91506003905082611130565b604080515f808252602082018084528a905260ff891692820192909252606081018790526080810186905260019060a0016020604051602081039080840390855afa1580156110fc573d5f803e3d5ffd5b5050604051601f1901519150506001600160a01b03811661112757505f925060019150829050611130565b92505f91508190505b9450945094915050565b5f805f835160208501865af49392505050565b6040513d81523d5f602083013e3d602001810160405290565b6040513d5f823e3d81fd5b5f60208284031215611181575f80fd5b81356001600160e01b0319811681146103f0575f80fd5b6001600160a01b03811681146109f2575f80fd5b5f8083601f8401126111bc575f80fd5b50813567ffffffffffffffff8111156111d3575f80fd5b6020830191508360208285010111156111ea575f80fd5b9250929050565b5f805f805f60808688031215611205575f80fd5b853561121081611198565b9450602086013561122081611198565b935060408601359250606086013567ffffffffffffffff811115611242575f80fd5b61124e888289016111ac565b969995985093965092949392505050565b5f805f60608486031215611271575f80fd5b833567ffffffffffffffff811115611287575f80fd5b84016101208187031215611299575f80fd5b95602085013595506040909401359392505050565b5f8083601f8401126112be575f80fd5b50813567ffffffffffffffff8111156112d5575f80fd5b6020830191508360208260051b85010111156111ea575f80fd5b5f805f805f8060608789031215611304575f80fd5b863567ffffffffffffffff8082111561131b575f80fd5b6113278a838b016112ae565b9098509650602089013591508082111561133f575f80fd5b61134b8a838b016112ae565b90965094506040890135915080821115611363575f80fd5b5061137089828a016112ae565b979a9699509497509295939492505050565b5f8060408385031215611393575f80fd5b823561139e81611198565b946020939093013593505050565b634e487b7160e01b5f52604160045260245ffd5b5f80604083850312156113d1575f80fd5b82356113dc81611198565b9150602083013567ffffffffffffffff808211156113f8575f80fd5b818501915085601f83011261140b575f80fd5b81358181111561141d5761141d6113ac565b604051601f8201601f19908116603f01168101908382118183101715611445576114456113ac565b8160405282815288602084870101111561145d575f80fd5b826020860160208301375f6020848301015280955050505050509250929050565b5f5b83811015611498578181015183820152602001611480565b50505f910152565b602081525f82518060208401526114be81604085016020870161147e565b601f01601f19169190910160400192915050565b5f805f80606085870312156114e5575f80fd5b84356114f081611198565b935060208501359250604085013567ffffffffffffffff811115611512575f80fd5b61151e878288016111ac565b95989497509550505050565b5f805f805f805f8060a0898b031215611541575f80fd5b883561154c81611198565b9750602089013561155c81611198565b9650604089013567ffffffffffffffff80821115611578575f80fd5b6115848c838d016112ae565b909850965060608b013591508082111561159c575f80fd5b6115a88c838d016112ae565b909650945060808b01359150808211156115c0575f80fd5b506115cd8b828c016111ac565b999c989b5096995094979396929594505050565b5f602082840312156115f1575f80fd5b81356103f081611198565b5f805f805f8060a08789031215611611575f80fd5b863561161c81611198565b9550602087013561162c81611198565b94506040870135935060608701359250608087013567ffffffffffffffff811115611655575f80fd5b61137089828a016111ac565b634e487b7160e01b5f52603260045260245ffd5b5f808335601e1984360301811261168a575f80fd5b83018035915067ffffffffffffffff8211156116a4575f80fd5b6020019150368190038213156111ea575f80fd5b5f602082840312156116c8575f80fd5b5051919050565b5f82516116e081846020870161147e565b9190910192915050565b634e487b7160e01b5f52602160045260245ffdfe360894a13ba1a3210667c828492db98dca3e2076cc3735a920a3ca505d382bbca2646970667358221220ee186a7a7c40b1eb4d78fa62612c7ac22135470ee5bbbe50c78fba37c0358a9b64736f6c63430008180033","linkReferences":{}},"methodIdentifiers":{"UPGRADE_INTERFACE_VERSION()":"ad3cb1cc","addDeposit()":"4a58db19","entryPoint()":"b0d691fe","execute(address,uint256,bytes)":"b61d27f6","executeBatch(address[],uint256[],bytes[])":"47e1da2a","getDeposit()":"c399ec88","getNonce()":"d087d288","initialize(address)":"c4d66de8","onERC1155BatchReceived(address,address,uint256[],uint256[],bytes)":"bc197c81","onERC1155Received(address,address,uint256,uint256,bytes)":"f23a6e61","onERC721Received(address,address,uint256,bytes)":"150b7a02","owner()":"8da5cb5b","proxiableUUID()":"52d1902d","supportsInterface(bytes4)":"01ffc9a7","upgradeToAndCall(address,bytes)":"4f1ef286","validateUserOp((address,uint256,bytes,bytes,bytes32,uint256,bytes32,bytes,bytes),bytes32,uint256)":"19822f7c","withdrawDepositTo(address,uint256)":"4d44560d"},"id":11}